{
  "_format": "hh-sol-artifact-1",
  "contractName": "MockSymbioticVault",
  "sourceName": "contracts/mocks/MockSymbioticVault.sol",
  "abi": [
    {
      "inputs": [
        {
          "internalType": "address",
          "name": "_asset",
          "type": "address"
        }
      ],
      "stateMutability": "nonpayable",
      "type": "constructor"
    },
    {
      "inputs": [],
      "name": "asset",
      "outputs": [
        {
          "internalType": "contract IERC20",
          "name": "",
          "type": "address"
        }
      ],
      "stateMutability": "view",
      "type": "function"
    },
    {
      "inputs": [
        {
          "internalType": "address",
          "name": "",
          "type": "address"
        },
        {
          "internalType": "uint256",
          "name": "amount",
          "type": "uint256"
        }
      ],
      "name": "deposit",
      "outputs": [
        {
          "internalType": "uint256",
          "name": "shares",
          "type": "uint256"
        }
      ],
      "stateMutability": "nonpayable",
      "type": "function"
    },
    {
      "inputs": [
        {
          "internalType": "address",
          "name": "",
          "type": "address"
        }
      ],
      "name": "sharesOf",
      "outputs": [
        {
          "internalType": "uint256",
          "name": "",
          "type": "uint256"
        }
      ],
      "stateMutability": "view",
      "type": "function"
    },
    {
      "inputs": [
        {
          "internalType": "address",
          "name": "",
          "type": "address"
        }
      ],
      "name": "totalAssets",
      "outputs": [
        {
          "internalType": "uint256",
          "name": "",
          "type": "uint256"
        }
      ],
      "stateMutability": "view",
      "type": "function"
    },
    {
      "inputs": [],
      "name": "totalDeposited",
      "outputs": [
        {
          "internalType": "uint256",
          "name": "",
          "type": "uint256"
        }
      ],
      "stateMutability": "view",
      "type": "function"
    },
    {
      "inputs": [],
      "name": "totalShares",
      "outputs": [
        {
          "internalType": "uint256",
          "name": "",
          "type": "uint256"
        }
      ],
      "stateMutability": "view",
      "type": "function"
    },
    {
      "inputs": [
        {
          "internalType": "address",
          "name": "",
          "type": "address"
        },
        {
          "internalType": "uint256",
          "name": "shares",
          "type": "uint256"
        }
      ],
      "name": "withdraw",
      "outputs": [
        {
          "internalType": "uint256",
          "name": "amountOut",
          "type": "uint256"
        }
      ],
      "stateMutability": "nonpayable",
      "type": "function"
    }
  ],
  "bytecode": "0x608060405234801561001057600080fd5b5060405161057638038061057683398101604081905261002f91610054565b600080546001600160a01b0319166001600160a01b0392909216919091179055610084565b60006020828403121561006657600080fd5b81516001600160a01b038116811461007d57600080fd5b9392505050565b6104e3806100936000396000f3fe608060405234801561001057600080fd5b506004361061007d5760003560e01c8063f3e0ffbf1161005b578063f3e0ffbf146100d7578063f3fef3a3146100ec578063f5eb42dc146100ff578063ff50abdc1461011f57600080fd5b806338d52e0f146100825780633a98ef39146100b257806347e7ef24146100c4575b600080fd5b600054610095906001600160a01b031681565b6040516001600160a01b0390911681526020015b60405180910390f35b6002545b6040519081526020016100a9565b6100b66100d2366004610403565b610128565b6100b66100e536600461042d565b5060015490565b6100b66100fa366004610403565b610286565b6100b661010d36600461042d565b60036020526000908152604090205481565b6100b660015481565b60008082116101695760405162461bcd60e51b81526020600482015260086024820152670616d6f756e743d360c41b60448201526064015b60405180910390fd5b6000546040516323b872dd60e01b8152336004820152306024820152604481018490526001600160a01b03909116906323b872dd906064016020604051808303816000875af11580156101c0573d6000803e3d6000fd5b505050506040513d601f19601f820116820180604052508101906101e4919061044f565b6102265760405162461bcd60e51b81526020600482015260136024820152721d1c985b9cd9995c919c9bdb4819985a5b1959606a1b6044820152606401610160565b5033600090815260036020526040812080548392839291610248908490610487565b9250508190555080600260008282546102619190610487565b92505081905550816001600082825461027a9190610487565b90915550505b92915050565b336000908152600360205260408120548211156102db5760405162461bcd60e51b8152602060048201526013602482015272696e73756666696369656e742073686172657360681b6044820152606401610160565b33600090815260036020526040812080548492906102fa90849061049a565b925050819055508160026000828254610313919061049a565b92505081905550819050806001600082825461032f919061049a565b909155505060005460405163a9059cbb60e01b8152336004820152602481018390526001600160a01b039091169063a9059cbb906044016020604051808303816000875af1158015610385573d6000803e3d6000fd5b505050506040513d601f19601f820116820180604052508101906103a9919061044f565b6102805760405162461bcd60e51b815260206004820152600f60248201526e1d1c985b9cd9995c8819985a5b1959608a1b6044820152606401610160565b80356001600160a01b03811681146103fe57600080fd5b919050565b6000806040838503121561041657600080fd5b61041f836103e7565b946020939093013593505050565b60006020828403121561043f57600080fd5b610448826103e7565b9392505050565b60006020828403121561046157600080fd5b8151801515811461044857600080fd5b634e487b7160e01b600052601160045260246000fd5b8082018082111561028057610280610471565b818103818111156102805761028061047156fea2646970667358221220a4966028a47363853fbcc79210f09a05bc9b66b27a37e9c7d4fa780d8c9d175b64736f6c63430008140033",
  "linkReferences": {},
  "deployedLinkReferences": {}
}