{
  "_format": "hh-sol-artifact-1",
  "contractName": "MockERC20",
  "sourceName": "contracts/mocks/MockERC20.sol",
  "abi": [
    {
      "inputs": [
        {
          "internalType": "string",
          "name": "name",
          "type": "string"
        },
        {
          "internalType": "string",
          "name": "symbol",
          "type": "string"
        },
        {
          "internalType": "uint8",
          "name": "decimals_",
          "type": "uint8"
        },
        {
          "internalType": "uint256",
          "name": "initialSupply",
          "type": "uint256"
        }
      ],
      "stateMutability": "nonpayable",
      "type": "constructor"
    },
    {
      "inputs": [
        {
          "internalType": "address",
          "name": "spender",
          "type": "address"
        },
        {
          "internalType": "uint256",
          "name": "allowance",
          "type": "uint256"
        },
        {
          "internalType": "uint256",
          "name": "needed",
          "type": "uint256"
        }
      ],
      "name": "ERC20InsufficientAllowance",
      "type": "error"
    },
    {
      "inputs": [
        {
          "internalType": "address",
          "name": "sender",
          "type": "address"
        },
        {
          "internalType": "uint256",
          "name": "balance",
          "type": "uint256"
        },
        {
          "internalType": "uint256",
          "name": "needed",
          "type": "uint256"
        }
      ],
      "name": "ERC20InsufficientBalance",
      "type": "error"
    },
    {
      "inputs": [
        {
          "internalType": "address",
          "name": "approver",
          "type": "address"
        }
      ],
      "name": "ERC20InvalidApprover",
      "type": "error"
    },
    {
      "inputs": [
        {
          "internalType": "address",
          "name": "receiver",
          "type": "address"
        }
      ],
      "name": "ERC20InvalidReceiver",
      "type": "error"
    },
    {
      "inputs": [
        {
          "internalType": "address",
          "name": "sender",
          "type": "address"
        }
      ],
      "name": "ERC20InvalidSender",
      "type": "error"
    },
    {
      "inputs": [
        {
          "internalType": "address",
          "name": "spender",
          "type": "address"
        }
      ],
      "name": "ERC20InvalidSpender",
      "type": "error"
    },
    {
      "anonymous": false,
      "inputs": [
        {
          "indexed": true,
          "internalType": "address",
          "name": "owner",
          "type": "address"
        },
        {
          "indexed": true,
          "internalType": "address",
          "name": "spender",
          "type": "address"
        },
        {
          "indexed": false,
          "internalType": "uint256",
          "name": "value",
          "type": "uint256"
        }
      ],
      "name": "Approval",
      "type": "event"
    },
    {
      "anonymous": false,
      "inputs": [
        {
          "indexed": true,
          "internalType": "address",
          "name": "from",
          "type": "address"
        },
        {
          "indexed": true,
          "internalType": "address",
          "name": "to",
          "type": "address"
        },
        {
          "indexed": false,
          "internalType": "uint256",
          "name": "value",
          "type": "uint256"
        }
      ],
      "name": "Transfer",
      "type": "event"
    },
    {
      "inputs": [
        {
          "internalType": "address",
          "name": "owner",
          "type": "address"
        },
        {
          "internalType": "address",
          "name": "spender",
          "type": "address"
        }
      ],
      "name": "allowance",
      "outputs": [
        {
          "internalType": "uint256",
          "name": "",
          "type": "uint256"
        }
      ],
      "stateMutability": "view",
      "type": "function"
    },
    {
      "inputs": [
        {
          "internalType": "address",
          "name": "spender",
          "type": "address"
        },
        {
          "internalType": "uint256",
          "name": "value",
          "type": "uint256"
        }
      ],
      "name": "approve",
      "outputs": [
        {
          "internalType": "bool",
          "name": "",
          "type": "bool"
        }
      ],
      "stateMutability": "nonpayable",
      "type": "function"
    },
    {
      "inputs": [
        {
          "internalType": "address",
          "name": "account",
          "type": "address"
        }
      ],
      "name": "balanceOf",
      "outputs": [
        {
          "internalType": "uint256",
          "name": "",
          "type": "uint256"
        }
      ],
      "stateMutability": "view",
      "type": "function"
    },
    {
      "inputs": [
        {
          "internalType": "uint256",
          "name": "amount",
          "type": "uint256"
        }
      ],
      "name": "burn",
      "outputs": [],
      "stateMutability": "nonpayable",
      "type": "function"
    },
    {
      "inputs": [],
      "name": "decimals",
      "outputs": [
        {
          "internalType": "uint8",
          "name": "",
          "type": "uint8"
        }
      ],
      "stateMutability": "view",
      "type": "function"
    },
    {
      "inputs": [
        {
          "internalType": "address",
          "name": "to",
          "type": "address"
        },
        {
          "internalType": "uint256",
          "name": "amount",
          "type": "uint256"
        }
      ],
      "name": "mint",
      "outputs": [],
      "stateMutability": "nonpayable",
      "type": "function"
    },
    {
      "inputs": [],
      "name": "name",
      "outputs": [
        {
          "internalType": "string",
          "name": "",
          "type": "string"
        }
      ],
      "stateMutability": "view",
      "type": "function"
    },
    {
      "inputs": [],
      "name": "symbol",
      "outputs": [
        {
          "internalType": "string",
          "name": "",
          "type": "string"
        }
      ],
      "stateMutability": "view",
      "type": "function"
    },
    {
      "inputs": [],
      "name": "totalSupply",
      "outputs": [
        {
          "internalType": "uint256",
          "name": "",
          "type": "uint256"
        }
      ],
      "stateMutability": "view",
      "type": "function"
    },
    {
      "inputs": [
        {
          "internalType": "address",
          "name": "to",
          "type": "address"
        },
        {
          "internalType": "uint256",
          "name": "value",
          "type": "uint256"
        }
      ],
      "name": "transfer",
      "outputs": [
        {
          "internalType": "bool",
          "name": "",
          "type": "bool"
        }
      ],
      "stateMutability": "nonpayable",
      "type": "function"
    },
    {
      "inputs": [
        {
          "internalType": "address",
          "name": "from",
          "type": "address"
        },
        {
          "internalType": "address",
          "name": "to",
          "type": "address"
        },
        {
          "internalType": "uint256",
          "name": "value",
          "type": "uint256"
        }
      ],
      "name": "transferFrom",
      "outputs": [
        {
          "internalType": "bool",
          "name": "",
          "type": "bool"
        }
      ],
      "stateMutability": "nonpayable",
      "type": "function"
    }
  ],
  "bytecode": "0x60806040523480156200001157600080fd5b5060405162000cd838038062000cd88339810160408190526200003491620002b5565b83836003620000448382620003cf565b506004620000538282620003cf565b50506005805460ff191660ff8516179055506200007133826200007b565b50505050620004c3565b6001600160a01b038216620000ab5760405163ec442f0560e01b8152600060048201526024015b60405180910390fd5b620000b960008383620000bd565b5050565b6001600160a01b038316620000ec578060026000828254620000e091906200049b565b90915550620001609050565b6001600160a01b03831660009081526020819052604090205481811015620001415760405163391434e360e21b81526001600160a01b03851660048201526024810182905260448101839052606401620000a2565b6001600160a01b03841660009081526020819052604090209082900390555b6001600160a01b0382166200017e576002805482900390556200019d565b6001600160a01b03821660009081526020819052604090208054820190555b816001600160a01b0316836001600160a01b03167fddf252ad1be2c89b69c2b068fc378daa952ba7f163c4a11628f55a4df523b3ef83604051620001e391815260200190565b60405180910390a3505050565b634e487b7160e01b600052604160045260246000fd5b600082601f8301126200021857600080fd5b81516001600160401b0380821115620002355762000235620001f0565b604051601f8301601f19908116603f01168101908282118183101715620002605762000260620001f0565b816040528381526020925086838588010111156200027d57600080fd5b600091505b83821015620002a1578582018301518183018401529082019062000282565b600093810190920192909252949350505050565b60008060008060808587031215620002cc57600080fd5b84516001600160401b0380821115620002e457600080fd5b620002f28883890162000206565b955060208701519150808211156200030957600080fd5b50620003188782880162000206565b935050604085015160ff811681146200033057600080fd5b6060959095015193969295505050565b600181811c908216806200035557607f821691505b6020821081036200037657634e487b7160e01b600052602260045260246000fd5b50919050565b601f821115620003ca57600081815260208120601f850160051c81016020861015620003a55750805b601f850160051c820191505b81811015620003c657828155600101620003b1565b5050505b505050565b81516001600160401b03811115620003eb57620003eb620001f0565b6200040381620003fc845462000340565b846200037c565b602080601f8311600181146200043b5760008415620004225750858301515b600019600386901b1c1916600185901b178555620003c6565b600085815260208120601f198616915b828110156200046c578886015182559484019460019091019084016200044b565b50858210156200048b5787850151600019600388901b60f8161c191681555b5050505050600190811b01905550565b80820180821115620004bd57634e487b7160e01b600052601160045260246000fd5b92915050565b61080580620004d36000396000f3fe608060405234801561001057600080fd5b50600436106100a95760003560e01c806340c10f191161007157806340c10f191461012957806342966c681461013e57806370a082311461015157806395d89b411461017a578063a9059cbb14610182578063dd62ed3e1461019557600080fd5b806306fdde03146100ae578063095ea7b3146100cc57806318160ddd146100ef57806323b872dd14610101578063313ce56714610114575b600080fd5b6100b66101ce565b6040516100c39190610636565b60405180910390f35b6100df6100da3660046106a0565b610260565b60405190151581526020016100c3565b6002545b6040519081526020016100c3565b6100df61010f3660046106ca565b61027a565b60055460405160ff90911681526020016100c3565b61013c6101373660046106a0565b61029e565b005b61013c61014c366004610706565b6102ac565b6100f361015f36600461071f565b6001600160a01b031660009081526020819052604090205490565b6100b66102b9565b6100df6101903660046106a0565b6102c8565b6100f36101a3366004610741565b6001600160a01b03918216600090815260016020908152604080832093909416825291909152205490565b6060600380546101dd90610774565b80601f016020809104026020016040519081016040528092919081815260200182805461020990610774565b80156102565780601f1061022b57610100808354040283529160200191610256565b820191906000526020600020905b81548152906001019060200180831161023957829003601f168201915b5050505050905090565b60003361026e8185856102d6565b60019150505b92915050565b6000336102888582856102e8565b61029385858561036c565b506001949350505050565b6102a882826103cb565b5050565b6102b63382610401565b50565b6060600480546101dd90610774565b60003361026e81858561036c565b6102e38383836001610437565b505050565b6001600160a01b03838116600090815260016020908152604080832093861683529290522054600019811015610366578181101561035757604051637dc7a0d960e11b81526001600160a01b038416600482015260248101829052604481018390526064015b60405180910390fd5b61036684848484036000610437565b50505050565b6001600160a01b03831661039657604051634b637e8f60e11b81526000600482015260240161034e565b6001600160a01b0382166103c05760405163ec442f0560e01b81526000600482015260240161034e565b6102e383838361050c565b6001600160a01b0382166103f55760405163ec442f0560e01b81526000600482015260240161034e565b6102a86000838361050c565b6001600160a01b03821661042b57604051634b637e8f60e11b81526000600482015260240161034e565b6102a88260008361050c565b6001600160a01b0384166104615760405163e602df0560e01b81526000600482015260240161034e565b6001600160a01b03831661048b57604051634a1406b160e11b81526000600482015260240161034e565b6001600160a01b038085166000908152600160209081526040808320938716835292905220829055801561036657826001600160a01b0316846001600160a01b03167f8c5be1e5ebec7d5bd14f71427d1e84f3dd0314c0f7b2291e5b200ac8c7c3b925846040516104fe91815260200190565b60405180910390a350505050565b6001600160a01b03831661053757806002600082825461052c91906107ae565b909155506105a99050565b6001600160a01b0383166000908152602081905260409020548181101561058a5760405163391434e360e21b81526001600160a01b0385166004820152602481018290526044810183905260640161034e565b6001600160a01b03841660009081526020819052604090209082900390555b6001600160a01b0382166105c5576002805482900390556105e4565b6001600160a01b03821660009081526020819052604090208054820190555b816001600160a01b0316836001600160a01b03167fddf252ad1be2c89b69c2b068fc378daa952ba7f163c4a11628f55a4df523b3ef8360405161062991815260200190565b60405180910390a3505050565b600060208083528351808285015260005b8181101561066357858101830151858201604001528201610647565b506000604082860101526040601f19601f8301168501019250505092915050565b80356001600160a01b038116811461069b57600080fd5b919050565b600080604083850312156106b357600080fd5b6106bc83610684565b946020939093013593505050565b6000806000606084860312156106df57600080fd5b6106e884610684565b92506106f660208501610684565b9150604084013590509250925092565b60006020828403121561071857600080fd5b5035919050565b60006020828403121561073157600080fd5b61073a82610684565b9392505050565b6000806040838503121561075457600080fd5b61075d83610684565b915061076b60208401610684565b90509250929050565b600181811c9082168061078857607f821691505b6020821081036107a857634e487b7160e01b600052602260045260246000fd5b50919050565b8082018082111561027457634e487b7160e01b600052601160045260246000fdfea2646970667358221220c1626cdf809d09f7810feed3a835550c8ef2e6583878977831bd12557fc26a6564736f6c63430008140033",
  "linkReferences": {},
  "deployedLinkReferences": {}
}