{
  "_format": "hh-sol-artifact-1",
  "contractName": "UserRegistry",
  "sourceName": "contracts/UserRegistry.sol",
  "abi": [
    {
      "inputs": [],
      "stateMutability": "nonpayable",
      "type": "constructor"
    },
    {
      "inputs": [
        {
          "internalType": "address",
          "name": "owner",
          "type": "address"
        }
      ],
      "name": "OwnableInvalidOwner",
      "type": "error"
    },
    {
      "inputs": [
        {
          "internalType": "address",
          "name": "account",
          "type": "address"
        }
      ],
      "name": "OwnableUnauthorizedAccount",
      "type": "error"
    },
    {
      "anonymous": false,
      "inputs": [
        {
          "indexed": true,
          "internalType": "address",
          "name": "previousOwner",
          "type": "address"
        },
        {
          "indexed": true,
          "internalType": "address",
          "name": "newOwner",
          "type": "address"
        }
      ],
      "name": "OwnershipTransferred",
      "type": "event"
    },
    {
      "anonymous": false,
      "inputs": [
        {
          "indexed": true,
          "internalType": "address",
          "name": "userAddress",
          "type": "address"
        },
        {
          "indexed": true,
          "internalType": "string",
          "name": "username",
          "type": "string"
        },
        {
          "indexed": false,
          "internalType": "string",
          "name": "publicKey",
          "type": "string"
        },
        {
          "indexed": false,
          "internalType": "uint256",
          "name": "timestamp",
          "type": "uint256"
        }
      ],
      "name": "UserRegistered",
      "type": "event"
    },
    {
      "anonymous": false,
      "inputs": [
        {
          "indexed": true,
          "internalType": "address",
          "name": "userAddress",
          "type": "address"
        },
        {
          "indexed": true,
          "internalType": "string",
          "name": "username",
          "type": "string"
        },
        {
          "indexed": false,
          "internalType": "string",
          "name": "publicKey",
          "type": "string"
        },
        {
          "indexed": false,
          "internalType": "uint256",
          "name": "timestamp",
          "type": "uint256"
        }
      ],
      "name": "UserUpdated",
      "type": "event"
    },
    {
      "inputs": [
        {
          "internalType": "string",
          "name": "_username",
          "type": "string"
        }
      ],
      "name": "getAddressByUsername",
      "outputs": [
        {
          "internalType": "address",
          "name": "",
          "type": "address"
        }
      ],
      "stateMutability": "view",
      "type": "function"
    },
    {
      "inputs": [],
      "name": "getAllRegisteredUsers",
      "outputs": [
        {
          "internalType": "address[]",
          "name": "",
          "type": "address[]"
        }
      ],
      "stateMutability": "view",
      "type": "function"
    },
    {
      "inputs": [
        {
          "internalType": "uint256",
          "name": "_start",
          "type": "uint256"
        },
        {
          "internalType": "uint256",
          "name": "_limit",
          "type": "uint256"
        }
      ],
      "name": "getRegisteredUsers",
      "outputs": [
        {
          "internalType": "address[]",
          "name": "",
          "type": "address[]"
        }
      ],
      "stateMutability": "view",
      "type": "function"
    },
    {
      "inputs": [],
      "name": "getTotalUsers",
      "outputs": [
        {
          "internalType": "uint256",
          "name": "",
          "type": "uint256"
        }
      ],
      "stateMutability": "view",
      "type": "function"
    },
    {
      "inputs": [
        {
          "internalType": "address",
          "name": "_userAddress",
          "type": "address"
        }
      ],
      "name": "getUserProfile",
      "outputs": [
        {
          "components": [
            {
              "internalType": "string",
              "name": "publicKey",
              "type": "string"
            },
            {
              "internalType": "string",
              "name": "username",
              "type": "string"
            },
            {
              "internalType": "string",
              "name": "profileData",
              "type": "string"
            },
            {
              "internalType": "uint256",
              "name": "registeredAt",
              "type": "uint256"
            },
            {
              "internalType": "bool",
              "name": "isRegistered",
              "type": "bool"
            }
          ],
          "internalType": "struct UserRegistry.UserProfile",
          "name": "",
          "type": "tuple"
        }
      ],
      "stateMutability": "view",
      "type": "function"
    },
    {
      "inputs": [
        {
          "internalType": "string",
          "name": "_username",
          "type": "string"
        }
      ],
      "name": "getUserProfileByUsername",
      "outputs": [
        {
          "components": [
            {
              "internalType": "string",
              "name": "publicKey",
              "type": "string"
            },
            {
              "internalType": "string",
              "name": "username",
              "type": "string"
            },
            {
              "internalType": "string",
              "name": "profileData",
              "type": "string"
            },
            {
              "internalType": "uint256",
              "name": "registeredAt",
              "type": "uint256"
            },
            {
              "internalType": "bool",
              "name": "isRegistered",
              "type": "bool"
            }
          ],
          "internalType": "struct UserRegistry.UserProfile",
          "name": "",
          "type": "tuple"
        }
      ],
      "stateMutability": "view",
      "type": "function"
    },
    {
      "inputs": [
        {
          "internalType": "address",
          "name": "_userAddress",
          "type": "address"
        }
      ],
      "name": "getUserPublicKey",
      "outputs": [
        {
          "internalType": "string",
          "name": "",
          "type": "string"
        }
      ],
      "stateMutability": "view",
      "type": "function"
    },
    {
      "inputs": [
        {
          "internalType": "string",
          "name": "_username",
          "type": "string"
        }
      ],
      "name": "getUserPublicKeyByUsername",
      "outputs": [
        {
          "internalType": "string",
          "name": "",
          "type": "string"
        }
      ],
      "stateMutability": "view",
      "type": "function"
    },
    {
      "inputs": [
        {
          "internalType": "address",
          "name": "_userAddress",
          "type": "address"
        }
      ],
      "name": "isUserRegistered",
      "outputs": [
        {
          "internalType": "bool",
          "name": "",
          "type": "bool"
        }
      ],
      "stateMutability": "view",
      "type": "function"
    },
    {
      "inputs": [],
      "name": "owner",
      "outputs": [
        {
          "internalType": "address",
          "name": "",
          "type": "address"
        }
      ],
      "stateMutability": "view",
      "type": "function"
    },
    {
      "inputs": [
        {
          "internalType": "string",
          "name": "_publicKey",
          "type": "string"
        },
        {
          "internalType": "string",
          "name": "_username",
          "type": "string"
        },
        {
          "internalType": "string",
          "name": "_profileData",
          "type": "string"
        }
      ],
      "name": "registerUser",
      "outputs": [],
      "stateMutability": "nonpayable",
      "type": "function"
    },
    {
      "inputs": [
        {
          "internalType": "uint256",
          "name": "",
          "type": "uint256"
        }
      ],
      "name": "registeredUsers",
      "outputs": [
        {
          "internalType": "address",
          "name": "",
          "type": "address"
        }
      ],
      "stateMutability": "view",
      "type": "function"
    },
    {
      "inputs": [],
      "name": "renounceOwnership",
      "outputs": [],
      "stateMutability": "nonpayable",
      "type": "function"
    },
    {
      "inputs": [
        {
          "internalType": "address",
          "name": "newOwner",
          "type": "address"
        }
      ],
      "name": "transferOwnership",
      "outputs": [],
      "stateMutability": "nonpayable",
      "type": "function"
    },
    {
      "inputs": [
        {
          "internalType": "string",
          "name": "_profileData",
          "type": "string"
        }
      ],
      "name": "updateProfile",
      "outputs": [],
      "stateMutability": "nonpayable",
      "type": "function"
    },
    {
      "inputs": [
        {
          "internalType": "string",
          "name": "_publicKey",
          "type": "string"
        }
      ],
      "name": "updatePublicKey",
      "outputs": [],
      "stateMutability": "nonpayable",
      "type": "function"
    },
    {
      "inputs": [
        {
          "internalType": "string",
          "name": "",
          "type": "string"
        }
      ],
      "name": "usernameToAddress",
      "outputs": [
        {
          "internalType": "address",
          "name": "",
          "type": "address"
        }
      ],
      "stateMutability": "view",
      "type": "function"
    },
    {
      "inputs": [
        {
          "internalType": "address",
          "name": "",
          "type": "address"
        }
      ],
      "name": "users",
      "outputs": [
        {
          "internalType": "string",
          "name": "publicKey",
          "type": "string"
        },
        {
          "internalType": "string",
          "name": "username",
          "type": "string"
        },
        {
          "internalType": "string",
          "name": "profileData",
          "type": "string"
        },
        {
          "internalType": "uint256",
          "name": "registeredAt",
          "type": "uint256"
        },
        {
          "internalType": "bool",
          "name": "isRegistered",
          "type": "bool"
        }
      ],
      "stateMutability": "view",
      "type": "function"
    }
  ],
  "bytecode": "0x608060405234801561001057600080fd5b50338061003757604051631e4fbdf760e01b81526000600482015260240160405180910390fd5b61004081610046565b50610096565b600080546001600160a01b038381166001600160a01b0319831681178455604051919092169283917f8be0079c531659141344cd1fd0a4f28419497f9722a3daafe3b4186f6b6457e09190a35050565b611a02806100a56000396000f3fe608060405234801561001057600080fd5b50600436106101155760003560e01c80638da5cb5b116100a2578063a87430ba11610071578063a87430ba1461026d578063d637dcfa14610291578063d91f2fa5146102a4578063f2fde38b146102b7578063f825f143146102ca57600080fd5b80638da5cb5b14610225578063987ee156146102365780639be572f614610249578063a524b32a1461025a57600080fd5b80632634757d116100e95780632634757d146101aa578063397388af146101ca5780636322961d146101df578063715018a61461020a5780637259e0f81461021257600080fd5b80629299e31461011a57806311231fe01461012f578063163f7522146101585780631dc6fa5e14610197575b600080fd5b61012d6101283660046113c9565b6102fe565b005b61014261013d366004611406565b6103cb565b60405161014f9190611486565b60405180910390f35b610187610166366004611406565b6001600160a01b031660009081526001602052604090206004015460ff1690565b604051901515815260200161014f565b61012d6101a53660046113c9565b6104b1565b6101bd6101b83660046113c9565b6105b3565b60405161014f9190611499565b6101d261082a565b60405161014f9190611514565b6101f26101ed3660046113c9565b61088c565b6040516001600160a01b03909116815260200161014f565b61012d6108dd565b6101f2610220366004611561565b6108f1565b6000546001600160a01b03166101f2565b6101bd610244366004611406565b61091b565b60035460405190815260200161014f565b6101426102683660046113c9565b610b82565b61028061027b366004611406565b610c77565b60405161014f95949392919061157a565b61012d61029f3660046115cd565b610e41565b6101d26102b2366004611655565b611129565b61012d6102c5366004611406565b61126b565b6101f26102d83660046113c9565b80516020818301810180516002825292820191909301209152546001600160a01b031681565b3360009081526001602052604090206004015460ff166103395760405162461bcd60e51b815260040161033090611677565b60405180910390fd5b336000908152600160205260409020600201610355828261172d565b5033600090815260016020819052604091829020915161037892909101906117ed565b6040805191829003822033600081815260016020529290922090927f20a3c0ccd71749b736891b28a035d7f5e1d6b4161c56414f468d0f1c0f42c42c916103c0914290611863565b60405180910390a350565b6001600160a01b03811660009081526001602052604090206004015460609060ff166104095760405162461bcd60e51b815260040161033090611677565b6001600160a01b0382166000908152600160205260409020805461042c906116a4565b80601f0160208091040260200160405190810160405280929190818152602001828054610458906116a4565b80156104a55780601f1061047a576101008083540402835291602001916104a5565b820191906000526020600020905b81548152906001019060200180831161048857829003601f168201915b50505050509050919050565b3360009081526001602052604090206004015460ff166104e35760405162461bcd60e51b815260040161033090611677565b60008151116105345760405162461bcd60e51b815260206004820152601a60248201527f5075626c6963206b65792063616e6e6f7420626520656d7074790000000000006044820152606401610330565b33600090815260016020526040902061054d828261172d565b5033600090815260016020819052604091829020915161057092909101906117ed565b6040518091039020336001600160a01b03167f20a3c0ccd71749b736891b28a035d7f5e1d6b4161c56414f468d0f1c0f42c42c83426040516103c09291906118f7565b6105e76040518060a00160405280606081526020016060815260200160608152602001600081526020016000151581525090565b60006002836040516105f99190611919565b908152604051908190036020019020546001600160a01b03169050806106315760405162461bcd60e51b815260040161033090611935565b6001600160a01b03811660009081526001602052604090819020815160a08101909252805482908290610663906116a4565b80601f016020809104026020016040519081016040528092919081815260200182805461068f906116a4565b80156106dc5780601f106106b1576101008083540402835291602001916106dc565b820191906000526020600020905b8154815290600101906020018083116106bf57829003601f168201915b505050505081526020016001820180546106f5906116a4565b80601f0160208091040260200160405190810160405280929190818152602001828054610721906116a4565b801561076e5780601f106107435761010080835404028352916020019161076e565b820191906000526020600020905b81548152906001019060200180831161075157829003601f168201915b50505050508152602001600282018054610787906116a4565b80601f01602080910402602001604051908101604052809291908181526020018280546107b3906116a4565b80156108005780601f106107d557610100808354040283529160200191610800565b820191906000526020600020905b8154815290600101906020018083116107e357829003601f168201915b50505091835250506003820154602082015260049091015460ff1615156040909101529392505050565b6060600380548060200260200160405190810160405280929190818152602001828054801561088257602002820191906000526020600020905b81546001600160a01b03168152600190910190602001808311610864575b5050505050905090565b60008060028360405161089f9190611919565b908152604051908190036020019020546001600160a01b03169050806108d75760405162461bcd60e51b815260040161033090611935565b92915050565b6108e56112a9565b6108ef60006112d6565b565b6003818154811061090157600080fd5b6000918252602090912001546001600160a01b0316905081565b61094f6040518060a00160405280606081526020016060815260200160608152602001600081526020016000151581525090565b6001600160a01b03821660009081526001602052604090206004015460ff1661098a5760405162461bcd60e51b815260040161033090611677565b6001600160a01b03821660009081526001602052604090819020815160a081019092528054829082906109bc906116a4565b80601f01602080910402602001604051908101604052809291908181526020018280546109e8906116a4565b8015610a355780601f10610a0a57610100808354040283529160200191610a35565b820191906000526020600020905b815481529060010190602001808311610a1857829003601f168201915b50505050508152602001600182018054610a4e906116a4565b80601f0160208091040260200160405190810160405280929190818152602001828054610a7a906116a4565b8015610ac75780601f10610a9c57610100808354040283529160200191610ac7565b820191906000526020600020905b815481529060010190602001808311610aaa57829003601f168201915b50505050508152602001600282018054610ae0906116a4565b80601f0160208091040260200160405190810160405280929190818152602001828054610b0c906116a4565b8015610b595780601f10610b2e57610100808354040283529160200191610b59565b820191906000526020600020905b815481529060010190602001808311610b3c57829003601f168201915b50505091835250506003820154602082015260049091015460ff16151560409091015292915050565b60606000600283604051610b969190611919565b908152604051908190036020019020546001600160a01b0316905080610bce5760405162461bcd60e51b815260040161033090611935565b6001600160a01b03811660009081526001602052604090208054610bf1906116a4565b80601f0160208091040260200160405190810160405280929190818152602001828054610c1d906116a4565b8015610c6a5780601f10610c3f57610100808354040283529160200191610c6a565b820191906000526020600020905b815481529060010190602001808311610c4d57829003601f168201915b5050505050915050919050565b600160205260009081526040902080548190610c92906116a4565b80601f0160208091040260200160405190810160405280929190818152602001828054610cbe906116a4565b8015610d0b5780601f10610ce057610100808354040283529160200191610d0b565b820191906000526020600020905b815481529060010190602001808311610cee57829003601f168201915b505050505090806001018054610d20906116a4565b80601f0160208091040260200160405190810160405280929190818152602001828054610d4c906116a4565b8015610d995780601f10610d6e57610100808354040283529160200191610d99565b820191906000526020600020905b815481529060010190602001808311610d7c57829003601f168201915b505050505090806002018054610dae906116a4565b80601f0160208091040260200160405190810160405280929190818152602001828054610dda906116a4565b8015610e275780601f10610dfc57610100808354040283529160200191610e27565b820191906000526020600020905b815481529060010190602001808311610e0a57829003601f168201915b50505050600383015460049093015491929160ff16905085565b6000835111610e925760405162461bcd60e51b815260206004820152601a60248201527f5075626c6963206b65792063616e6e6f7420626520656d7074790000000000006044820152606401610330565b6000825111610ee35760405162461bcd60e51b815260206004820152601860248201527f557365726e616d652063616e6e6f7420626520656d70747900000000000000006044820152606401610330565b3360009081526001602052604090206004015460ff1615610f465760405162461bcd60e51b815260206004820152601760248201527f5573657220616c726561647920726567697374657265640000000000000000006044820152606401610330565b60006001600160a01b0316600283604051610f619190611919565b908152604051908190036020019020546001600160a01b031614610fc05760405162461bcd60e51b81526020600482015260166024820152752ab9b2b93730b6b29030b63932b0b23c903a30b5b2b760511b6044820152606401610330565b6040805160a081018252848152602080820185905281830184905242606083015260016080830181905233600090815291529190912081518190611004908261172d565b5060208201516001820190611019908261172d565b506040820151600282019061102e908261172d565b50606082015160038201556080909101516004909101805460ff19169115159190911790556040513390600290611066908590611919565b90815260405190819003602001812080546001600160a01b03939093166001600160a01b0319938416179055600380546001810182556000919091527fc2575a0e9e593c00f959f8c92f12db2869c3395a3b0502d05e2516446f71f85b01805490921633179091556110d9908390611919565b6040518091039020336001600160a01b03167fb43e07573ffd613ee4cb14f22ebd42b902fb524682771d8e82932bd48bcda247854260405161111c9291906118f7565b60405180910390a3505050565b600354606090831061117d5760405162461bcd60e51b815260206004820152601960248201527f537461727420696e646578206f7574206f6620626f756e6473000000000000006044820152606401610330565b60006111898385611977565b60035490915081111561119b57506003545b60006111a7858361198a565b67ffffffffffffffff8111156111bf576111bf611326565b6040519080825280602002602001820160405280156111e8578160200160208202803683370190505b509050845b8281101561126257600381815481106112085761120861199d565b6000918252602090912001546001600160a01b031682611228888461198a565b815181106112385761123861199d565b6001600160a01b03909216602092830291909101909101528061125a816119b3565b9150506111ed565b50949350505050565b6112736112a9565b6001600160a01b03811661129d57604051631e4fbdf760e01b815260006004820152602401610330565b6112a6816112d6565b50565b6000546001600160a01b031633146108ef5760405163118cdaa760e01b8152336004820152602401610330565b600080546001600160a01b038381166001600160a01b0319831681178455604051919092169283917f8be0079c531659141344cd1fd0a4f28419497f9722a3daafe3b4186f6b6457e09190a35050565b634e487b7160e01b600052604160045260246000fd5b600082601f83011261134d57600080fd5b813567ffffffffffffffff8082111561136857611368611326565b604051601f8301601f19908116603f0116810190828211818310171561139057611390611326565b816040528381528660208588010111156113a957600080fd5b836020870160208301376000602085830101528094505050505092915050565b6000602082840312156113db57600080fd5b813567ffffffffffffffff8111156113f257600080fd5b6113fe8482850161133c565b949350505050565b60006020828403121561141857600080fd5b81356001600160a01b038116811461142f57600080fd5b9392505050565b60005b83811015611451578181015183820152602001611439565b50506000910152565b60008151808452611472816020860160208601611436565b601f01601f19169290920160200192915050565b60208152600061142f602083018461145a565b602081526000825160a060208401526114b560c084018261145a565b90506020840151601f19808584030160408601526114d3838361145a565b92506040860151915080858403016060860152506114f1828261145a565b915050606084015160808401526080840151151560a08401528091505092915050565b6020808252825182820181905260009190848201906040850190845b818110156115555783516001600160a01b031683529284019291840191600101611530565b50909695505050505050565b60006020828403121561157357600080fd5b5035919050565b60a08152600061158d60a083018861145a565b828103602084015261159f818861145a565b905082810360408401526115b3818761145a565b606084019590955250509015156080909101529392505050565b6000806000606084860312156115e257600080fd5b833567ffffffffffffffff808211156115fa57600080fd5b6116068783880161133c565b9450602086013591508082111561161c57600080fd5b6116288783880161133c565b9350604086013591508082111561163e57600080fd5b5061164b8682870161133c565b9150509250925092565b6000806040838503121561166857600080fd5b50508035926020909101359150565b602080825260139082015272155cd95c881b9bdd081c9959da5cdd195c9959606a1b604082015260600190565b600181811c908216806116b857607f821691505b6020821081036116d857634e487b7160e01b600052602260045260246000fd5b50919050565b601f82111561172857600081815260208120601f850160051c810160208610156117055750805b601f850160051c820191505b8181101561172457828155600101611711565b5050505b505050565b815167ffffffffffffffff81111561174757611747611326565b61175b8161175584546116a4565b846116de565b602080601f83116001811461179057600084156117785750858301515b600019600386901b1c1916600185901b178555611724565b600085815260208120601f198616915b828110156117bf578886015182559484019460019091019084016117a0565b50858210156117dd5787850151600019600388901b60f8161c191681555b5050505050600190811b01905550565b60008083546117fb816116a4565b60018281168015611813576001811461182857611857565b60ff1984168752821515830287019450611857565b8760005260208060002060005b8581101561184e5781548a820152908401908201611835565b50505082870194505b50929695505050505050565b604081526000808454611875816116a4565b806040860152606060018084166000811461189757600181146118b1576118e2565b60ff1985168884015283151560051b8801830195506118e2565b8960005260208060002060005b868110156118d95781548b82018701529084019082016118be565b8a018501975050505b50505050506020929092019290925292915050565b60408152600061190a604083018561145a565b90508260208301529392505050565b6000825161192b818460208701611436565b9190910192915050565b602080825260129082015271155cd95c9b985b59481b9bdd08199bdd5b9960721b604082015260600190565b634e487b7160e01b600052601160045260246000fd5b808201808211156108d7576108d7611961565b818103818111156108d7576108d7611961565b634e487b7160e01b600052603260045260246000fd5b6000600182016119c5576119c5611961565b506001019056fea2646970667358221220ce6c133026da342702695419d9618a18590923ce46bc0432be409965416fb9d964736f6c63430008140033",
  "linkReferences": {},
  "deployedLinkReferences": {}
}